:100000000C9462000C948A000C948A000C948A0070
:100010000C948A000C948A000C948A000C948A0038
:100020000C948A000C948A000C948A000C948A0028
:100030000C948A000C948A000C948A000C948A0018
:100040000C94AC050C948A000C948A000C948A00E1
:100050000C948A000C948A000C948A000C948A00F8
:100060000C948A000C948A000000000023002600F3
:10007000290000000008000201000003040700003E
:1000800000000000000000000000250028002B00F8
:1000900000000000240027002A00040404040404D3
:1000A0000404020202020202030303030303010227
:1000B00004081020408001020408102001020408F6
:1000C0001020F60511241FBECFEFD8E0DEBFCDBF54
:1000D00011E0A0E0B1E0E0E5F0E102C005900D9292
:1000E000A232B107D9F724E0A2E2B1E001C01D922B
:1000F000AA3EB207E1F710E0C2E6D0E004C02197C3
:10010000FE010E941B08C136D107C9F70E940C06E8
:100110000C9426080C940000CF93DF9390E0FC0130
:10012000E255FF4F2491FC01E656FF4F849188234E
:10013000C1F090E0880F991FFC01E057FF4FC59177
:10014000D491FC01EA57FF4FA591B4919FB7F89461
:100150008881E22FE0958E2388838C91E823EC93AD
:100160009FBFDF91CF91089590E0FC01EE58FF4FC3
:100170002491FC01E255FF4F3491FC01E656FF4FFC
:10018000E491EE23B9F1222339F1233091F038F4D0
:100190002130A9F0223001F584B58F7D12C02730BF
:1001A00091F02830A1F02430B9F4809180008F7D47
:1001B00003C0809180008F77809380000DC084B54C
:1001C0008F7784BD09C08091B0008F7703C0809184
:1001D000B0008F7D8093B000F0E0EE0FFF1FE85974
:1001E000FF4FA591B491EC913E2381E090E021F482
:1001F00080E0089580E090E008953FB7F894809102
:10020000250190912601A0912701B091280126B5E2
:10021000A89B05C02F3F19F00196A11DB11D3FBF3E
:10022000BA2FA92F982F8827820F911DA11DB11DCC
:10023000BC01CD0142E0660F771F881F991F4A95C8
:10024000D1F708953F924F925F926F927F928F9273
:100250009F92AF92BF92CF92DF92EF92FF920F9355
:100260001F93CF93DF9300D01F92CDB7DEB7F82E48
:100270008091DD049091DE04A091DF04B091E00450
:10028000892B8A2B8B2BE9F00E94FD000091D6046C
:100290001091D7042091D8043091D904DC01CB010E
:1002A000801B910BA20BB30B0091DD041091DE04B7
:1002B0002091DF043091E00480179107A207B30773
:1002C000B8F20E94FD006093D6047093D704809327
:1002D000D8049093D904E091E504F091E6043097B6
:1002E00059F04091E1045091E2046091E30470916F
:1002F000E4048F2D0995F82E0091D4041091D504B3
:100300004F2C512C612C712C0115110509F461C081
:10031000D8011C96EC901C978091DB049091DC0432
:100320008436910510F41C961C92D801ED91FC9135
:10033000A280B38019821A821B82F11014C0F801C6
:1003400045855685628173819E012F5F3F4FC801AD
:10035000F5010995D8011C96EC921C9714960D9105
:100360001C911597D1CFF8013996CE0101966C01F9
:1003700048019CE0890E911CDF0113973C9021916C
:10038000332001F12223F1F0822F90E0A0E0B0E0D1
:100390009C01AD012F5F3F4F4F4F5F4FC301B20133
:1003A0000E94DC079B01AC01832D90E0A0E0B0E04F
:1003B000BC01CD016F5F7F4F8F4F9F4F0E94DC07C5
:1003C000D6018C93BFEFCB1ADB0AE815F905A1F62D
:1003D000B6CF8091D2049091D3049C012F5F3F4F00
:1003E0003093D3042093D20449970CF447C08FB7BD
:1003F000F8940091CA041091CB042091CC04309160
:10040000CD048FBFE091D204F091D30488EE93E045
:10041000E89FB001E99F700DF89F700D1124072E21
:10042000000C880B990BC090CE04D090CF04E090C4
:10043000D004F090D104A90198012C193D094E096E
:100440005F090E94AB073093DC042093DB04109219
:10045000D3041092D2042FB7F8948091CA049091DB
:10046000CB04A091CC04B091CD042FBF8093CE04D7
:100470009093CF04A093D004B093D1040F900F9029
:100480000F90DF91CF911F910F91FF90EF90DF9030
:10049000CF90BF90AF909F908F907F906F905F9024
:1004A0004F903F900895EF92FF920F931F93CF9339
:1004B000DF93EC01909123019F5F292F27702093F8
:1004C000230190FF02C090E801C090E021FD9064FC
:1004D000247009F0906220E1290FFE013C967E0114
:1004E0008FE0E80EF11C00E011E06191662331F02D
:1004F00070E0C8010E9400086F5F01C060E0DF018A
:1005000014976C93322F369F030E30E0311D112467
:10051000CF010797311103C0EC01188203C031509D
:10052000EC013883662311F061506C93EE15FF05E2
:10053000E1F6DF91CF911F910F91FF90EF90089519
:100540004F925F926F927F928F92AF92BF92CF92B3
:10055000EF92FF920F931F93CF93DF933C01EB0138
:100560000E94FD00F30127853089621B730B6A30FE
:100570007105B0F3F894E881F9815BB150688BB1F3
:100580008F778BB96A859F81262F291B922F2F8306
:10059000BF844A805B807D85FC84EE847F5FF3941A
:1005A000E3943E814885A984CB841181D20120E067
:1005B000C32F022F322F3181112788943111390F27
:1005C00008F43FEF9195889470FD130F1795889468
:1005D00071FD130F1795889472FD130F179588946A
:1005E00073FD130F1795889474FD130F1795889456
:1005F00075FD130F1795889476FD130F1795889442
:1006000077FD130F17958894232F7111212F960FC3
:10061000122F002C5BB900C017FF8BB93081222745
:10062000889400C000C0002C8BB931113C0F00C071
:10063000002C5BB900C016FF8BB908F43FEFC195E1
:10064000889400C000C0002C8BB9F0FC230F00C0C0
:10065000002C5BB900C015FF8BB927958894F1FC7D
:10066000230F00C000C0002C8BB92795889400C0D0
:10067000002C5BB900C014FF8BB9F2FC230F279547
:10068000889400C000C0002C8BB9F3FC230F00C07D
:10069000002C5BB900C013FF8BB927958894F4FC3C
:1006A000230F00C000C0002C8BB92795889400C090
:1006B000002C5BB900C012FF8BB9F5FC230F279506
:1006C000889400C000C0002C8BB9F6FC230F00C03A
:1006D000002C5BB900C011FF8BB927958894F7FCFB
:1006E000230F00C000C0002C8BB92795889400C050
:1006F000002C5BB900C010FF8BB9132FF110122F23
:10070000CA0D00C000C0002C8BB900C000C0002C76
:100710005BB900C017FF8BB932812227889400C0D3
:1007200000C0002C8BB93111340F00C0002C5BB914
:1007300000C016FF8BB908F43FEFEB0DF11D00C0B0
:1007400000C0002C8BB9E0FC230F00C0002C5BB96B
:1007500000C015FF8BB927958894E1FC230F00C0DA
:1007600000C0002C8BB92795889400C0002C5BB981
:1007700000C014FF8BB9E2FC230F2795889400C0BA
:1007800000C0002C8BB9E3FC230F00C0002C5BB928
:1007900000C013FF8BB927958894E4FC230F00C099
:1007A00000C0002C8BB92795889400C0002C5BB941
:1007B00000C012FF8BB9E5FC230F2795889400C079
:1007C00000C0002C8BB9E6FC230F00C0002C5BB9E5
:1007D00000C011FF8BB927958894E7FC230F00C058
:1007E00000C0002C8BB92795889400C0002C5BB901
:1007F00000C010FF8BB9132FE110122F419500C0DC
:1008000000C0002C8BB94C0D00C000C05BB900C00B
:1008100017FF8BB931812227889400C000C0002CBB
:100820008BB93111390F00C0002C5BB900C016FF25
:100830008BB908F43FEF9195889400C000C0002C5C
:100840008BB970FD230F00C0002C5BB900C015FFF1
:100850008BB92795889471FD230F00C000C0002C30
:100860008BB92795889400C0002C5BB900C014FF99
:100870008BB972FD230F2795889400C000C0002C0F
:100880008BB973FD230F00C0002C5BB900C013FFB0
:100890008BB92795889474FD230F00C000C0002CED
:1008A0008BB92795889400C0002C5BB900C012FF5B
:1008B0008BB975FD230F2795889400C000C0002CCC
:1008C0008BB976FD230F00C0002C5BB900C011FF6F
:1008D0008BB92795889477FD230F00C000C0002CAA
:1008E0008BB92795889400C0002C5BB900C010FF1D
:1008F0008BB9132F7111122F960F00C000C0002C5E
:100900008BB9119709F086CE20EE31E0D2010E941A
:100910001408DC01CB01F4E0B695A795979587956F
:10092000FA95D1F720E030E0A9016AE9469E040C6F
:10093000411D569E400D511D1124450D511D840F22
:10094000951FA11DB11D893E43E09407A105B10586
:1009500008F434C0885E9340A109B10942E0B6951D
:10096000A795979587954A95D1F747E0849F080EFC
:10097000211D949F200D311D1124290F311D6091DF
:10098000220170E0860F971F820F931F4091CA04C7
:100990005091CB046091CC047091CD04292F332762
:1009A000420F531F611D711D4093CA045093CB0425
:1009B0006093CC047093CD048093220178940E94BC
:1009C000FD00F301708B6787DF91CF911F910F912D
:1009D000FF90EF90CF90BF90AF908F907F906F90EF
:1009E0005F904F90089580E991E00895579A089597
:1009F0000F931F93CF93DF93CDB7DEB762970FB6F8
:100A0000F894DEBF0FBECDBF8C01F901DC011C964E
:100A10008C917A8369835C834B835E834D83908161
:100A20009D8791819E8792819F87813029F4CE0195
:100A300001960E94530206C01C861B861A861986E0
:100A400018861F8283E0888B1A8A198AD801ED9153
:100A5000FC910484F585E02DBE016F5F7F4FC801D6
:100A6000099562960FB6F894DEBF0FBECDBFDF9139
:100A7000CF911F910F9108950F931F93CF93DF9301
:100A8000CDB7DEB762970FB6F894DEBF0FBECDBF0D
:100A90008C01F901DC011C968C917A8369835C835B
:100AA0004B835E834D8390819D8791819E87928148
:100AB0009F87813029F4CE0101960E94530206C01F
:100AC0001C861B861A86198618861F82188A1A8A1F
:100AD000198AD801ED91FC910484F585E02DBE01C1
:100AE0006F5F7F4FC801099562960FB6F894DEBF1D
:100AF0000FBECDBFDF91CF911F910F91089580E080
:100B000090E00895FC01858596850895CF93DF9345
:100B100000D000D000D0CDB7DEB7AB011C821D8263
:100B20001E82DC01ED91FC910190F081E02D198293
:100B30001A821B829E012F5F3F4FBE016C5F7F4F69
:100B4000099526960FB6F894DEBF0FBECDBFDF9194
:100B5000CF9108950E9421081F920F920FB60F9215
:100B600011242F933F938F939F93AF93BF938091C3
:100B7000CA049091CB04A091CC04B091CD043091E3
:100B8000240123E0230F2D3720F40196A11DB11D70
:100B900005C026E8230F0296A11DB11D2093240154
:100BA0008093CA049093CB04A093CC04B093CD045B
:100BB0008091250190912601A0912701B0912801F3
:100BC0000196A11DB11D8093250190932601A0934C
:100BD0002701B0932801BF91AF919F918F913F91D1
:100BE0002F910F900FBE0F901F901895EAEDF4E033
:100BF0008FEF808312821182148613868FEF9FEF0E
:100C0000DC0187839087A187B287E7EEF4E082E377
:100C10008083818382830895789484B5826084BDC3
:100C200084B5816084BD85B5826085BD85B58160F0
:100C300085BD80916E00816080936E00109281006E
:100C40008091810082608093810080918100816029
:100C500080938100809180008160809380008091EA
:100C6000B10084608093B1008091B0008160809376
:100C7000B00080917A00846080937A0080917A003D
:100C8000826080937A0080917A00816080937A00FC
:100C900080917A00806880937A001092C10085E08C
:100CA0000E948C0086E00E948C0080913C018111A2
:100CB00045C010922E0110922D018FEF80933101CB
:100CC0008093320180933301809334018093350106
:100CD0008093360181E080933701109239011092A0
:100CE00038011092300110922F018091D40490911C
:100CF000D504892B31F48BE291E09093D504809355
:100D0000D404E0912901F0912A01309721F08BE27F
:100D100091E0958384838BE291E090932A01809304
:100D2000290110923B0110923A0184E191E09093E5
:100D30002C0180932B0181E080933C01E0912B01F9
:100D4000F0912C010480F581E02D8BE291E0099572
:100D500084E491E090932E0180932D018CE291E048
:100D60009093390180933801E0912B01F0912C018F
:100D70000284F385E02D8BE291E00995009729F13B
:100D80009C0140E050E060E472E48FE090E00E945B
:100D90008107722F632F0091DD041091DE042091F2
:100DA000DF043091E004872F962FDA018017910736
:100DB000A207B30710F4D901C8018093DD04909312
:100DC000DE04A093DF04B093E0048FEF8093310141
:100DD00080EB8093320180EF809333018BE480932A
:100DE000DA0420E030E0C9018C5B9E4FFC01EC5737
:100DF000FC4F1082319610823196108223503109B7
:100E00002C378CEF380779F78BE40E94220124E11C
:100E1000E22EF12C22242A9430E0C32E30E0D32E8F
:100E200090E8392E85E00E94B40021E0892B09F476
:100E300020E02093C90486E00E94B40021E0892BC1
:100E400009F420E02093C80404E411E0C5E4D1E0F3
:100E5000E6E4F1E020E030E0C901B7010E94EC07D0
:100E6000892B21F4D8012C9218820AC0C9010A9654
:100E7000B7010E94EC07D801892B21F41C9238821B
:100E8000108203C02C92288220822F5F3F4F0D5F7B
:100E90001F4F239633962C32B1E03B07E9F6809141
:100EA000DA040E9422010E94FD004B015C0184EFE4
:100EB000482E55245394612C712C0E94FD00DC01B6
:100EC000CB0188199909AA09BB09883E9340A1055D
:100ED000B10558F021E0421A51086108710888EE06
:100EE000880E83E0981EA11CB11C411451046104BA
:100EF000710419F7C114D10409F494CF0E940000C1
:100F00008FCF052E97FB1EF400940E94980757FD83
:100F100007D00E94AB0707FC03D04EF40C9498074F
:100F200050954095309521953F4F4F4F5F4F089515
:100F300090958095709561957F4F8F4F9F4F089545
:100F40000E94CD07A59F900DB49F900DA49F800D8A
:100F5000911D11240895A1E21A2EAA1BBB1BFD01AD
:100F60000DC0AA1FBB1FEE1FFF1FA217B307E40788
:100F7000F50720F0A21BB30BE40BF50B661F771FE0
:100F8000881F991F1A9469F76095709580959095C0
:100F90009B01AC01BD01CF010895A29FB001B39F99
:100FA000C001A39F700D811D1124911DB29F700D72
:100FB000811D1124911D0895DB018F939F930E9441
:100FC000A007BF91AF91A29F800D911DA39F900D8F
:100FD000B29F900D11240895AA1BBB1B51E107C0BD
:100FE000AA1FBB1FA617B70710F0A61BB70B881FB9
:100FF000991F5A95A9F780959095BC01CD01089548
:1010000097FB072E16F4009407D077FD09D00E94B5
:10101000EC0707FC05D03EF4909581959F4F08950D
:10102000709561957F4F08950E94CD07B7FF089591
:10103000821B930B0895EE0FFF1F0590F491E02D96
:10104000099481E090E0F8940C942608F894FFCF7E
:1010500000000000AA05AA05AA05860582057F05ED
:10106000000000003C05F804F60486058205F30440
:02107000A002DC
:00000001FF
